:020000041000EA
:100000000000022001060010910400103F060010BD
:1000100041060010430600104506001000000000D5
:100020000000000000000000000000004706001073
:1000300049060010000000004B0600104D0600109D
:100040005106001053060010550600105706001008
:10005000590600105B0600105D0600105F060010D8
:1000600061060010630600106506001067060010A8
:10007000690600106B0600106D0600106F06001078
:100080007106001073060010750600107706001048
:10009000790600107B0600107D0600107F06001018
:1000A000150400101D0400108506001087060010BE
:1000B000890600108B0600108D0600108F060010B8
:1000C0009106001093060010950600109706001088
:1000D000990600109B0600109D0600109F06001058
:1000E000A1060010A3060010A5060010A706001028
:1000F000A9060010AB060010AD060010AF060010F8
:10010000B1060010B3060010B5060010B7060010C7
:10011000B9060010BB060010BD060010BF06001097
:10012000C1060010C3060010C5060010C706001067
:10013000C9060010CB060010CD060010CF06001037
:10014000D1060010D3060010D5060010D706001007
:10015000D9060010DB060010DD060010DF060010D7
:10016000E1060010E3060010E5060010E7060010A7
:10017000E9060010EB060010ED060010EF06001077
:10018000F1060010F3060010F5060010F706001047
:10019000F9060010FB060010FD060010FF06001017
:1001A00001070010030700100507001007070010E3
:1001B000090700100B0700100D0700100F070010B3
:1001C0001107001013070010150700101707001083
:1001D000190700101B0700101D0700101F07001053
:1001E00010B5054C237833B9044B13B10448AFF371
:1001F00000800123237010BD240A002000000000AD
:10020000A88D001008B5034B1BB103490348AFF399
:10021000008008BD00000000280A0020A88D001002
:1002200010F0010F70B50CBF00240824820748BFEE
:1002300044F01004430748BF44F04004010748BF9E
:1002400044F0800410F0100F0CBF002580258206BA
:1002500048BF45F02005430648BF45F04005D8217A
:1002600010F0800F0D480CBF0026402600F026FE3F
:100270000B48E02100F022FE0A48402100F01EFE5B
:100280002146064800F002FE2946054800F0FEFD22
:1002900031460448BDE8704000F0F8BD0004084055
:1002A00000800040009000402DE9F04F93B000F036
:1002B000B9F8494C4948DFF84491494D01F062FED4
:1002C0004FF0010B4FF0D80A06A8CDE9064AE02707
:1002D000ADF820B08DF822B000F0A4FC09A80A9770
:1002E0004026CDF82490ADF82CB08DF82EB000F05B
:1002F00099FC0CA8CDE90C56ADF838B08DF83AB0A1
:1003000000F090FC5146204600F0D8FD39464846A2
:1003100000F0D4FD3146284600F0D0FD04224FF411
:1003200080730FA8CDE90F92ADF844308DF846B038
:1003300000F078FC2B4ADFF8C8A007CA03AD03C55C
:1003400029492A8007C96C4603C400252270022768
:100350002C46A84617E03846B8F1000F2CD1FFF71D
:100360005FFF224B621CA3FB0234E40804EB84040D
:10037000A2EB440404F148036B4413F83C7C1C4892
:1003800000F00CFBB3460421484600F065FD061E54
:1003900018BF0126BBF1000FDDD00028DBD188F0AB
:1003A00001084146134801F08BFD134800F0F6FAAE
:1003B0003846B8F1000FD2D005F148036B4413F86A
:1003C000480CFFF72DFF6B1CAAFB03256D0805EBFE
:1003D000C5055D1BD3E700BF000408404C87001033
:1003E000009000408C87001098870010CDCCCCCCBA
:1003F000E093040074870010F04902000080004080
:10040000398EE33808B50346014801F059FDFEE78F
:10041000A4870010002000F06BBD00BF012000F099
:1004200067BD00BF10B5002000F014FB012000F0F4
:1004300011FB402000F00EFB104B022218684FF415
:10044000E13100F021FF041E0CDB00F0A5F858B9E3
:1004500000F082F8044660B9094B0A484322DA608A
:1004600000F09CFA204610BD074908486422FFF7B7
:10047000C9FF054905486922FFF7C4FF00000020B5
:1004800000440040400D0300C087001000880010A9
:1004900000BF70474FF0FF30704700BF4FF0FF3094
:1004A000704700BF4FF0FF30704700BF4FF0FF3084
:1004B000704700BFF8B5E0B9002A1746054615DDBC
:1004C0000F4E0C4602E00135AF4210D0304600F02E
:1004D0002FFFC1B22170304600F02CFF224614F8E5
:1004E000013B0D2BEFD10A231370681CF8BD384671
:1004F000F8BD01F00BF9092303604FF0FF30F8BDA0
:1005000000200440F8B5431E012B1CD8002A1746D2
:1005100017DD551E0F4E4C1E0D4404E0304600F012
:1005200009FFAC420DD014F8011F0A29F6D10D21A4
:10053000304600F0FFFE2178304600F0FBFEAC4272
:10054000F1D13846F8BD01F0E1F8092303604FF01E
:10055000FF30F8BD00200440F8B50D4B1F68A7B16F
:1005600000250C4C2E46D4E9000100F08FFC2046FB
:1005700000F058FB0135002818BF6FF00706AF42A6
:1005800004F10C04EFD13046F8BD3E463046F8BDCC
:100590002C88001008880010F8B5164B1F68FFB1B2
:1005A0000024154D2646284600F03CFB0134002867
:1005B00018BF6FF00706BC4205F10C05F3D10F4CD4
:1005C000206840B1002F14BF3A460122002101F0FB
:1005D00019FC3046F8BD384601F0C2F82060F1E75A
:1005E000064C26680EB13E46F3E7304601F0B8F8F7
:1005F0002060EEE73088001034880010400A0020A8
:10060000474885464748804780B94749474A484B4D
:100610009B1A03DD043BC858D050FBDC4549464AD1
:1006200000209142BCBF41F8040BFAE743488047E1
:100630004348804743488047FFF7FEFFFEE7FEE759
:10064000FEE7FEE7FEE7FEE7FEE7FEE7FEE7FEE782
:10065000FEE7FEE7FEE7FEE7FEE7FEE7FEE7FEE772
:10066000FEE7FEE7FEE7FEE7FEE7FEE7FEE7FEE762
:10067000FEE7FEE7FEE7FEE7FEE7FEE7FEE7FEE752
:10068000FEE7FEE7FEE7FEE7FEE7FEE7FEE7FEE742
:10069000FEE7FEE7FEE7FEE7FEE7FEE7FEE7FEE732
:1006A000FEE7FEE7FEE7FEE7FEE7FEE7FEE7FEE722
:1006B000FEE7FEE7FEE7FEE7FEE7FEE7FEE7FEE712
:1006C000FEE7FEE7FEE7FEE7FEE7FEE7FEE7FEE702
:1006D000FEE7FEE7FEE7FEE7FEE7FEE7FEE7FEE7F2
:1006E000FEE7FEE7FEE7FEE7FEE7FEE7FEE7FEE7E2
:1006F000FEE7FEE7FEE7FEE7FEE7FEE7FEE7FEE7D2
:10070000FEE7FEE7FEE7FEE7FEE7FEE7FEE7FEE7C1
:10071000FEE7FEE7FEE7FEE7FEE7FEE7FEE7FEE7B1
:1007200000000220FD070010B88D0010000000201E
:10073000240A0020240A0020A40E0020050800102E
:1007400019170010A90200100B4A08B503461068DB
:1007500028B10A4903448B4207D8136008BD0848F2
:100760000649106003448B42F7D900F0CFFF0C23F9
:1007700003604FF0FF3008BD440A002000F0012064
:10078000A80E00206FF01000704700BF6FF010003F
:10079000704700BF4FF080439A6802F46062B2F580
:1007A000206F20D010D8CAB1104B47F23051B2F5AB
:1007B000C06F08BF0B464FF080420D499268C2F3EC
:1007C0008212D3400B607047B2F5406F08D0074BE0
:1007D0000849B2F5606F08BF0B46ECE7064BEAE745
:1007E0004FF40043E7E74FF4E103E4E700E1F505E8
:1007F000A40E0020C068780400879303002070478F
:10080000704700BF10B50B4C0B4BA3600B4800F0BA
:1008100045FCD4F8883043F47003C4F88830BFF343
:100820004F8FBFF36F8FFFF7B5FFFFF7E9FFFFF7BC
:10083000F9FD10BD00ED00E00000001000A0024036
:1008400038B54FF0E02318499C691A6922F48032C8
:100850000A601A69D20723D46FF07F4405225C61D5
:100860004FF080759C611A61104B114A1968002382
:10087000A0FB010107F0E8FD0E4BB0FBF5F205FB14
:10088000120084421A6007D81A6801321A602C4498
:10089000094B201A186038BD074B201A186038BD64
:1008A0005D690135E0E700BF4C0A0020A40E00207E
:1008B00040420F0004000020500A002010B50C4CEC
:1008C0000C4B22681960002A0FDC08B9002010BD0B
:1008D000FFF7B6FF2368002BF8DD4FF0E022002081
:1008E000136943F00203136110BD6FF0050010BDE2
:1008F00004000020480A0020F8B5174C2368002B9C
:100900001EDB26682EBB154B4FF0E0251B68AA693D
:100910009A421ED8124F3B685BB16FF00F009847A8
:10092000104B3E601A682A614FF0FF3323600020AD
:10093000F8BD0C4A4FF0FF3312682A612360F6E7D6
:10094000074C2368002BF2D000209847002020603D
:10095000F8BD6FF00500F8BD04000020500A00202B
:10096000480A00204C0A002010B5094C236823B126
:100970006FF00F00984700232360064A064B10686B
:100980004FF0E0214FF0FF3208611A6010BD00BF48
:10099000480A00204C0A00200400002038B5184CFA
:1009A0002268002A29DC00B938BDFFF749FF4FF063
:1009B000E02202E01369DB031BD42368002BF9DC7F
:1009C000104B1A684FF0E0218B699342FCD80E4D12
:1009D0002B6823B16FF00F00984700232B600B4B5F
:1009E0004FF0E022196811614FF0FF3300202360BF
:1009F00038BD2368013B2360DFE76FF0050038BD99
:100A000004000020500A0020480A00204C0A002060
:100A10003F2809D90E4A4038D168C0B2012303FAF1
:100A200000F00843D06070471F284FF0804208D97B
:100A30002038916CC0B2012303FA00F0084390649F
:100A40007047516A012303FA00F00843506270476F
:100A5000000008403F280AD910494038CB68C0B28E
:100A6000012202FA00F023EA0000C86070471F2844
:100A70004FF0804109D920388B6CC0B2012202FAB4
:100A800000F023EA0000886470474B6A012202FAF2
:100A900000F023EA00004862704700BF00000840F1
:100AA00010B507280AD8DFE800F00C0909233347FE
:100AB0005B04BDE81040364800F0B4B86FF00200A7
:100AC00010BD4FF080440021A36843F48023A3604D
:100AD0004FF47A70FFF7F2FE03E0FFF70DFF0630E8
:100AE00052D1A3685901F8D5FFF73EFF002010BD91
:100AF00000214FF47A70FFF7E1FE4FF0804403E0ED
:100B0000FFF7FAFE06303FD1A3689A00ECD4F7E76E
:100B10004FF080440021A36843F40023A3604FF406
:100B20007A70FFF7CBFE03E0FFF7E6FE06302BD12D
:100B3000A3681B01F8D5D7E74FF080440021A368D4
:100B400043F48013A3604FF47A70FFF7B7FE03E01D
:100B5000FFF7D2FE063017D1A368D800C4D4F7E758
:100B60004FF080440021A36843F40033A3604FF4A6
:100B70007A70FFF7A3FE03E0FFF7BEFE063003D155
:100B8000A3689B01B0D4F7E76FF0090010BD00BF68
:100B90004C8800103F280AD94038114AC0B20123BE
:100BA00003FA00F0906093681842FCD170471F2848
:100BB0000BD92038C0B201234FF0804203FA00F075
:100BC0005064536C1842FCD1704701234FF08042AF
:100BD00003FA00F0506053681842FCD1704700BF20
:100BE00000000840C10710B5044608D4A2070BD482
:100BF00063070ED42046BDE8104000F02BBD002056
:100C0000FFF728FFA207F3D50120FFF723FF6307B3
:100C1000F0D54020FFF71EFF2046BDE8104000F051
:100C200019BD00BFF8B5894B05689D42044638D010
:100C300003F580539D4212D003F5EE2303F5806344
:100C40009D423CD003F500739D423AD00020FFF74F
:100C5000C9FF00F055FD012808D10020F8BD022091
:100C6000FFF7C0FF00F04CFD0128F6D06268A17AC2
:100C7000284600F065F90028F0D1754B22689A42A9
:100C800011D06268217A284600F07AF90028E5D16F
:100C9000637A042B00F2D680DFE803F0554D3D3532
:100CA0001E000120D3E7237A012B00F0BD80022B28
:100CB00054D0002B00F0A0806FF01000F8BD04208D
:100CC000C5E70820FFF78EFF00F01AFD0128C4D009
:100CD000A37A002BD1D1EFE72A6E636822EA0302E0
:100CE0002A666A6E1A436A66D5F8B8201343C5F8B7
:100CF000B830237A002BB0D06268E17A2846BDE88C
:100D0000F84000F07BB92A6E63681A432A666A6E5F
:100D100022EA0302E7E72B6E626823EA02032B66EE
:100D20006B6E13436B66D5F8B83023EA0203C5F83F
:100D3000B830237ADEE72B6E626813432B666B6E46
:100D400023EA0203EEE72A6E616822EA01022A66BC
:100D50006B6E23EA01036B66237ACBE762683D483A
:100D60004FEA420C1101066A0CF0020C01F020015E
:100D700041EA0C01314301628168C2F3400242EA58
:100D80000C020A438260627A042A95D8DFE802F0F6
:100D9000271C031C030062682E48D100066A01F07C
:100DA000100102F0010C41EA0C0126EA0101016286
:100DB0009100520101F0040102F040020A43016A6D
:100DC00021EA0202026295E722486268076AD100BE
:100DD00002F0010601F010013E433143E7E761688C
:100DE0001C488A004901066A02F0040201F0400131
:100DF0000A43324302627DE7626816484FEA420CBA
:100E00001101066A0CF0020C01F0200141EA0C010C
:100E100026EA010101628168C2F3400242EA0C0243
:100E200021EA02028260AEE762680A484FEA420C99
:100E30001101066A0CF0020C01F0200141EA0C01DC
:100E40003143E7E76FF00200F8BD00BF00800040CB
:100E500000060840006C00400A4A90420B4601D050
:100E600000F062B8084A106A116A01EA831100EAC8
:100E7000C3000B06C0F3C00002D540F0020070476B
:100E8000704700BF00060840006C0040094A9042CD
:100E900001D000F04DB8084810B4046ACA0001F04F
:100EA0000101214302F0100319435DF8044B016274
:100EB000704700BF00060840006C00400A4A90429C
:100EC00001D000F037B810B4084C0B46C900206AB6
:100ED00001F0100203F00101114320EA0101216237
:100EE0005DF8044B704700BF00060840006C0040EE
:100EF00000F0C2BB034A904201D000F01DB8024A84
:100F0000D16170470006084000680040034B9842DA
:100F100001D000F013B8024BD869704700060840B2
:100F20000068004000F0ECBB406A0840704700BF1A
:100F3000C16170470162704781647047006C7047FF
:100F400070B505460C461646FFF7ECFF012814D095
:100F50005CB1012C02D06FF0020070BDD5F8C0204A
:100F600032430020C5F8C02070BDD5F8C02022EA69
:100F700006022046C5F8C02070BD002070BD00BF2D
:100F800070B504460E461546FFF7CCFF01280AD07F
:100F9000236B2B4323636560052E2CD8DFE806F016
:100FA0000C14161D2405002070BDC4F888500020C4
:100FB000A567E566A56070BD656165600020256771
:100FC000E567C4F8885070BD2561F6E7C4F888501D
:100FD0000020E5672567A56070BDC4F88850002033
:100FE000E567E566A56070BDC4F888500020A56778
:100FF0002567A56070BD6FF0020070BD70B5044636
:101000000D461646FFF78EFF012810D0032D37D866
:10101000DFE805F01B02290FD4F8B0303343C4F8E1
:10102000B030D4F8B42022EA0606C4F8B460002038
:1010300070BDD4F8B0303343C4F8B030D4F8B42025
:101040001643C4F8B460002070BDD4F8B03023EA71
:101050000603C4F8B030D4F8B42022EA0606C4F877
:10106000B460002070BDD4F8B03023EA0603C4F8A1
:10107000B030D4F8B4201643C4F8B460002070BD7A
:10108000D4F8B03023EA0603C4F8B030D4F8B43052
:1010900023EA0606C4F8B460C9E700BF00F000B850
:1010A000D0F80031012223F00103C0F80031C0F86C
:1010B0000027D0F80031DA03FBD5D0F8003143F037
:1010C0000103C0F80031D0F80031DB03FBD57047D5
:1010D00008B5174B984210D0164B984215D0164BB6
:1010E00098421AD0154B98421FD14420FFF752FD69
:1010F0004420FFF78DFC002008BD0B20FFF74AFDC0
:101100000920FFF785FC002008BD0C20FFF742FDF9
:101110000A20FFF77DFC002008BD1C20FFF73AFDE8
:101120002120FFF775FC002008BD6FF0020008BD0C
:1011300000200440003004400040044000140840F7
:10114000214B10B504469C42084629D003F5805334
:101150009C4225D003F580539C4221D003F5753382
:101160009C4222D10523042A636121D12368B0F572
:10117000166F43F4001323608CBF002301236361C7
:101180004FF480310246204600F066F9002806DD63
:10119000236843F40043236023681B03FCD510BD80
:1011A000052363615AB1022A06D06FF0020010BD18
:1011B000FBD822B1022AF8D14FF4E101E2E7034B58
:1011C00019684908DEE700BF00200440A40E002093
:1011D00000F050B900F05EB900F070B9164B9842BB
:1011E00010B5044612D003F5805398420ED003F593
:1011F000805398420AD003F57533984203D10229EF
:1012000007D0042910D06FF0020010BD39B10229B7
:10121000F9D10520FFF744FC02210028F5D1204632
:10122000BDE8104000F094B90620FFF739FC032117
:101230000028F4D0E9E700BF0020044010B50446C0
:1012400000F0DAF90F4B9C420DD003F580539C421D
:1012500009D003F580539C4205D003F575339C42B9
:1012600008D0FD2010BD0028FCD0022814BFF920B2
:10127000022010BD0228F5D0032814BFF920042055
:1012800010BD00BF0020044070B504460E46154650
:10129000FFF71EFF10BB1C4B9C4227D01B4B9C42F0
:1012A0001DD01B4B9C4228D01A4B9C4214D11A488B
:1012B000FFF7B8FC4420FFF7CDFB29462046FFF797
:1012C0008DFF58B92046FFF7B9FF31460246204648
:1012D000BDE8704000F050B86FF0020070BD0F48DC
:1012E000FFF7A0FC0A20FFF7B5FBE6E70C48FFF785
:1012F00099FC0920FFF7AEFBDFE70A48FFF792FCF5
:101300002120FFF7A7FBD8E700200440003004406D
:1013100000400440001408407C88001064880010DD
:10132000588800107088001000F06AB900F070B999
:1013300000F008B800F012B800F074B900F076B907
:1013400000F07AB910B504462046FFF7F5FF0028F3
:10135000FAD02046BDE81040FFF7E6BF38B5044696
:101360000D462046FFF7EAFF0028FAD0294620461E
:10137000BDE83840FFF7DABFF8B5324CA042054669
:101380000F4616460FD0304B98420CD003F58053D1
:10139000984208D003F57533984204D02B492C4865
:1013A0008622FFF72FF801212846FFF7C9FF0446E0
:1013B00008B12046F8BD08212846FFF709FF04467A
:1013C0000028F6D101462846FFF706FF044600280C
:1013D000EFD101462846FFF7FDFE04460028E8D17C
:1013E000324639462846FFF7ABFE002821DB154B75
:1013F0009D4220D003F580539D421ED003F58053BB
:101400009D421CD003F575339D420CBF03234FF062
:10141000FF33104803EB430300EBC3024FF0FF31EF
:10142000DB00C2E902110021C15051601174516109
:10143000BFE70446BDE72346EBE70123E9E70223C4
:10144000E7E700BF00200440003004408888001017
:10145000D0880010080000209142B1FBF2F304D3C1
:1014600002FB1311B1EB520F00D901330361104697
:10147000704700BF05390329024607D8036823F4E3
:10148000406343EA81210020116070476FF0020041
:10149000704700BF61B1012906D10368002143F400
:1014A00080530360084670476FF00201084670479A
:1014B000036823F4805303600846704703460429F9
:1014C00042D8DFE801F0111725330300026842F02B
:1014D00010021A601A6842F020021A601A6842F07C
:1014E000400200201A607047026822F010020020BB
:1014F0001A607047026842F010021A601A6822F0FF
:1015000020021A601A6822F0400200201A60704718
:10151000026842F010021A601A6822F020021A6073
:101520001A6842F0400200201A607047026842F0D8
:1015300010021A601A6842F020021A601A6822F03B
:10154000400200201A6070476FF00200704700BF31
:10155000032938B50D46044630D8234B9C4236D07B
:1015600003F580539C4227D003F580539C4238D02A
:1015700003F575339C420CBF03234FF0FF331B4A26
:10158000D35CBBB9236813F4004F4FEA05452368C9
:101590001FD023F400432360236805F4403523F46F
:1015A00040331D432560236843F4004323602368D0
:1015B0001B03FCD5002038BD0123E0E70C490D4892
:1015C00040F23312FEF71EFF074B9C42C8D10023A6
:1015D000D5E723F4403305F440351D432560002052
:1015E00038BD0223CBE700BF00200440540A00208E
:1015F00088880010008900100068C0F3014070471F
:101600004368DB0654BF006A6FF00C00704700BFF0
:10161000436813F0800306BF016218466FF00B00A9
:10162000704700BF4068C0F3032070474068C0F3B4
:101630000330C0F1080070474B1E072B024606D846
:10164000036823F00F0319430020116070476FF007
:101650000200704710B5064C217831B905484FF4A7
:10166000007200F0CFFB01232370002010BD00BFEB
:10167000590E0020580A0020032870B5054625D8C9
:10168000E0B9174E3046FFF741FC044601463046AC
:10169000FFF730FC8CB1134E134B06EBC51603EB72
:1016A000C515E30703D52B680BB13068984764086C
:1016B00006F1040605F10405F3D170BD01280CD034
:1016C0000A4E0B4B022818BF1E46DBE709490A48A1
:1016D0004E22FEF797FE0026D4E7084ED2E700BF61
:1016E00000800040580C0020580A002000040840E8
:1016F0000006084028890010708900100090004002
:10170000014B1878704700BF580E0020014B186835
:10171000704700BF6800002070B50D4E0D4D761B60
:10172000B61006D0002455F8043B01349847A64271
:10173000F9D1094E094D761B07F02AFBB61006D0E9
:10174000002455F8043B01349847A642F9D170BDF6
:10175000180A0020180A0020200A0020180A002079
:10176000024B0146186800F003B800BF6800002073
:101770002DE9F04F01F10B06162E83B0044624D854
:10178000102900F2BA8000F08FFB102618220220E8
:10179000B54F3A44A2F1080153688B4200F0BA8079
:1017A0005A68D96822F003021A449D68E9608D6086
:1017B000516841F001012046516003F1080500F035
:1017C00079FB284603B0BDE8F08F36F0070600F13C
:1017D0009480B14200F2918000F066FBB6F5FC7F88
:1017E000C0F09A81730A00F08F80042B00F26F81A1
:1017F000B30903F1390003F1380CC3009A4F3B449D
:10180000A3F108055B689D4206D10CE0002980F237
:101810002781DB689D4206D05A6822F00302911BA3
:101820000F29F3DD60463D69DFF850C265457CD085
:101830006A6822F00302931B0F2B00F37B81002BBD
:10184000C7E904CC80F26C81B2F5007F80F01A8188
:10185000D308796801334FEA521E012202FA0EF2D0
:101860000A4357F833E0C5F808E007EBC30108392D
:10187000E9607A6047F83350CEF80C5083100121AC
:101880009940914257D8114206D120F003004900F7
:10189000114200F10400FAD007EBC0094D4686461C
:1018A000D5F80C80454508D11DE1002B80F224813C
:1018B000D8F80C80454500F01681D8F8042022F0B5
:1018C0000302931B0F2BF0DD2046D8E9025408EBEE
:1018D000060146F00106C8F80460EC60A56043F01C
:1018E0000104C7E90411C1E902CC4C6048F8023098
:1018F00000F0E0FA08F1080502E00C23236000255F
:10190000284603B0BDE8F08F4FF4007340204FF03D
:101910003F0C73E7D3689A4208BF02307FF440AFB0
:101920003D69DFF858C1654582D17A68831001218D
:1019300099409142A7D9BD686B6823F003094E45D1
:1019400003D8A9EB06030F2B7ADCDFF834B1474B41
:10195000DBF800201B680132334405EB090A00F074
:10196000338103F580530F3323F47F6828F00F0889
:101970004146204600F00EFB411C024600F0F38079
:10198000824500F2EE803A4B1968414419600846DE
:1019900000F04E81DBF80010019301311BBFA2EB78
:1019A0000A0A5044CBF80020186012F0070B00F030
:1019B0001781CBF108010A44CBF5805190440831DE
:1019C000A1EB0801C1F30B0A51462046009200F03A
:1019D000E1FA421CDDE9002300F04F81801A00EBA0
:1019E0000A081968BA6048F001005144BD425060CD
:1019F000196000F02981B9F10F0F40F22781686862
:101A0000A9F10C0C2CF0070C00F0010040EA0C00CE
:101A100068604FF0050E05EB0C00BCF10F0FC0E93C
:101A200001EE00F2328150681546124B1A688A4264
:101A300038BF1960104B1A688A4238BF196094E0A9
:101A4000AA1943F0010346F001066E602046BA6011
:101A5000536000F02FFA0835284603B0BDE8F08F38
:101A6000D9681A44A1E600BF980400208C0E00201B
:101A70005C0E0020840E0020880E0020A0040020B0
:101A8000A0080020B2F5206F4FEA522363D3142B35
:101A900000F2B78003F15C01C9005B3307EB010E74
:101AA0007958AEF1080E8E4500F091804B6823F016
:101AB0000303934202D989688E45F7D1D1F80CE02F
:101AC0007A68C5E9021ECEF80850CD60D6E6142B20
:101AD00059D9542B00F29D80330B03F16F0003F1B1
:101AE0006E0CC3008AE60EF1010E1EF0030F05F125
:101AF00008057FF4D5AE51E0424445465368D8F816
:101B00000C1043F00103536055F8083F2046D9609C
:101B10008B6000F0CFF9F3E6F00806F1080237E633
:101B20002A442046536843F001035360083500F00F
:101B3000C1F9E5E6A919204646F0010643F0010483
:101B40006E60C7E90411C1E902CC4C60AB5000F0F3
:101B5000B1F90835D4E6930903F13901C9003833E6
:101B60009CE7BD425FD0BD68686820F00308464529
:101B7000A8EB060302D80F2B3FF762AF204600F018
:101B800099F90025BCE603F15C0003F15B0CC3008E
:101B900034E659F808394B4540F0968010F0030FB1
:101BA00000F1FF30F5D17B6823EA01037B60490037
:101BB00099423FF6C0AE19B9BDE649000EF1040ED8
:101BC0001942FAD0704667E603F11008D0E69A1081
:101BD0004FF001087B6808FA02F21A437A6070E756
:101BE00002EB08014942C1F30B0A5146204600921C
:101BF00000F0D0F9431CDDE900237FF4EFAEDA46B4
:101C0000EFE6542B25D8130B03F16F01C9006E3397
:101C100044E7B3F5AA7F25D8F30B03F1780003F16D
:101C2000770CC300EAE5294B186840441860B1E618
:101C3000CAF30B0CBCF1000F7FF4ACAEBD68C84416
:101C400048F001006860F0E61546EEE601235360B7
:101C500094E7B3F5AA7F23D8D30B03F17801C90029
:101C600077331BE740F25452934223D8B30C03F16D
:101C70007D0003F17C0CC300C0E5ABF1080BD84438
:101C8000A8EB02084FF0000AABE605F10801204678
:101C9000009303F077FABD68009B68681968C4E692
:101CA00040F254518B420BD8930C03F17D01C900D3
:101CB0007C33F3E64FF47E737F204FF07E0C9DE57E
:101CC0004FF47E717E23E9E67B6870E75C0E0020AE
:101CD000844641EA000313F003036DD1403A41D337
:101CE00051F8043B40F8043B51F8043B40F8043BF6
:101CF00051F8043B40F8043B51F8043B40F8043BE6
:101D000051F8043B40F8043B51F8043B40F8043BD5
:101D100051F8043B40F8043B51F8043B40F8043BC5
:101D200051F8043B40F8043B51F8043B40F8043BB5
:101D300051F8043B40F8043B51F8043B40F8043BA5
:101D400051F8043B40F8043B51F8043B40F8043B95
:101D500051F8043B40F8043B51F8043B40F8043B85
:101D6000403ABDD2303211D351F8043B40F8043B25
:101D700051F8043B40F8043B51F8043B40F8043B65
:101D800051F8043B40F8043B103AEDD20C3205D335
:101D900051F8043B40F8043B043AF9D2043208D02D
:101DA000D2071CBF11F8013B00F8013B01D30B889F
:101DB00003806046704700BF082A13D38B078DD07D
:101DC00010F003038AD0C3F10403D21ADB071CBF4F
:101DD00011F8013B00F8013B80D331F8023B20F8B9
:101DE000023B7BE7043AD9D3013A11F8013B00F8F2
:101DF000013BF9D20B7803704B7843708B7883707A
:101E000060467047830730B548D0541E002A3FD043
:101E1000CAB2034601E0013C3AD303F8012B9D0707
:101E2000F9D1032C2DD9CDB245EA05250F2C45EA71
:101E3000054536D9A4F1100222F00F0C03F1200E53
:101E4000E6444FEA121C03F1100242E9045542E94C
:101E5000025510327245F8D10CF1010214F00C0F4A
:101E600003EB021204F00F0C13D0ACF1040323F0C7
:101E700003030433134442F8045B9342FBD10CF098
:101E800003042CB1CAB21C4403F8012B9C42FBD1C1
:101E900030BD64461346002CF4D1F9E703461446DE
:101EA000BFE71A46A446E0E7014803F015BC00BFAF
:101EB000940E0020014803F011BC00BF940E0020D6
:101EC0000FB400B5074983B004AB086853F8042B7E
:101ED0008168019300F0E4F803B05DF804EB04B00E
:101EE000704700BF6800002070B5054688B00846FE
:101EF0000C4600F065F8224EAA6B059001214318AC
:101F0000CDE9066104A8022104940393AC68019012
:101F1000029122B3636E13F0010FB4F90C309AB240
:101F200001D1980525D5910406D4626E43F400537F
:101F300022F40052A3816266284601AA214603F0DA
:101F400027FA636E002814BF4FF0FF350A25DA0721
:101F500002D4A3899B0506D5284608B070BD284643
:101F600003F018F8D6E7A06D03F0B8FB284608B0D8
:101F700070BDA06D03F0B0FBB4F90C309AB2D2E79B
:101F800094890010024B01461868FFF7ADBF00BFEF
:101F90006800002038B5074D0022044608462A6034
:101FA000FEF7D2FB431C00D038BD2B68002BFBD0C2
:101FB000236038BDA00E00200000000000000000DB
:101FC00090F800F06DE9024520F007016FF0000C79
:101FD00010F0070491F820F040F049804FF0000421
:101FE0006FF00700D1E9002391F840F000F10800FC
:101FF00082FA4CF2A4FA8CF283FA4CF3A2FA8CF334
:102000004BBBD1E9022382FA4CF200F10800A4FA9A
:102010008CF283FA4CF3A2FA8CF3E3B9D1E90423EE
:1020200082FA4CF200F10800A4FA8CF283FA4CF325
:10203000A2FA8CF37BB9D1E9062301F1200182FADF
:102040004CF200F10800A4FA8CF283FA4CF3A2FAE5
:102050008CF3002BC6D0002A04BF04301A4612BAF3
:10206000B2FA82F2FDE8024500EBD2007047D1E9F6
:10207000002304F00305C4F100004FEAC50514F085
:10208000040F91F840F00CFA05F562EA05021CBF56
:1020900063EA050362464FF00004A9E70000000070
:1020A0002DE9F04F2DED0A8BD3B01C4609EE101A26
:1020B000914609EE900A054603F006FB0368179364
:1020C00018460D94FFF77CFF16901DB1AB6B002BEB
:1020D00000F0488219EE102A536EDB0740F1478169
:1020E000B2F90C309AB2960409D419EE101A43F4DE
:1020F00000538B819AB24B6E23F400534B66150745
:1021000040F1CC8019EE103A1B69002B00F0C6801C
:1021100002F01A030A2B00F0D2804D469FED9C7B03
:102120002B78002429AACDE92744CDE91944CDE92B
:102130001B448DED147B19EE909A129426929046D2
:1021400018940A94002B00F0B081AB4604E01BF811
:10215000013F002B00F0CD80252BF8D1BBEB05060D
:1021600040F0CB809BF80030002B00F09E810023D4
:102170004FF0FF329BF801708DF87B3009930BF123
:10218000010B08929A462B2420210BF1010BA7F199
:1021900020035A2B00F20081DFE813F00A03FE004F
:1021A000FE000503FE00FE00FE006A00FE00FE00C9
:1021B00076029E02FE008102A802FE00A3025B00DE
:1021C0005B005B005B005B005B005B005B005B0037
:1021D000FE00FE00FE00FE00FE00FE00FE008E017E
:1021E000FE001602ED018E018E018E01FE00FE0042
:1021F000FE00FE000003FE00FE004502FE00FE00A1
:10220000FE002002FE00C202FE00FE009A07FE0051
:10221000FE00FE00FE00FE00FE00FE00FE008E013D
:10222000FE001602EF018E018E018E01E602EF0123
:10223000E801FE00F302FE0086024702D402E80134
:10224000FE0020027D007607FE00FE007A07FE00F9
:102250007D00A7F1300300221BF8017B02EB820214
:1022600003EB4202A7F13003092BF5D909928EE75F
:10227000484603F029FA43681B931846FFF7A0FE6F
:102280001C900646484603F01FFA836819932021E4
:10229000002E40F0EA869BF8007076E719EE101ADF
:1022A00019EE900A19EE105A01F000FD002841F0D5
:1022B0002483AA8902F01A030A2B7FF42EAF19EEA9
:1022C000101AB1F90E30002BFFF627AF4B6ED9076D
:1022D00002D4920541F1568119EE101A19EE900AB6
:1022E00023464A4653B0BDEC0A8BBDE8F04F01F0DF
:1022F0009DBCBBEB050600F0D880289B3344289397
:10230000279B0133072BC8E90056279305DC08F10A
:1023100008080A9B33440A9324E719EE101A26AAE8
:10232000484604F0A3F990B90DF1A408F1E719EEBD
:10233000101A26AA484604F099F9002800F0A68051
:102340000C9B23B119EE900A194602F01BFF19EEFF
:10235000102A536ED80740F1FA8093895A0601F18A
:10236000D5820A9853B0BDEC0A8BBDE8F08FB2F964
:102370000C309F059AB23FF5B6AE19EE105AA86D13
:1023800003F0AAF9B5F90C309AB2ACE6AFF30080CD
:102390000000000000000000002F00F086800023F5
:1023A0008DF8E4708DF87B300122CDE90B23079284
:1023B000089310931393119339AD1AF002020E9201
:1023C00002D0079A023207921AF084020F9205D1C6
:1023D000099A0799561A002E00F36883289C8BB13E
:1023E000279B0DF17B0201330134C8F80020072B35
:1023F0004FF0010228942793C8F8042000F39F832C
:1024000008F108080E9B83B1279B1FAA01330234F1
:10241000C8F80020072B4FF0020228942793C8F831
:10242000042000F3998308F108080F9B802B00F02B
:102430006A82089B0B9A9E1A002E00F3AB821AF454
:10244000807F40F006820B9BC8F804301C44279B19
:10245000C8F800500133072B2894279300F3198301
:1024600008F108081AF0040F05D0099B079A9D1A75
:10247000002D00F38583DDE9092307998A42ACBF6B
:102480009B185B180A93002C7FF451AF002327930D
:102490000C9B1BB10C99484602F074FE0DF1A40888
:1024A0005D462B78002B7FF450AE289B002B41F02B
:1024B0001882002327934AE70D9B073323F0070375
:1024C000B3EC027B8DED147BDDE914120D9322F049
:1024D00000430AEE101A0AEE903A4FF0FF32B0EEC7
:1024E0004A8AF0EE6A8AB74B51EC180B05F06EFF82
:1024F000002840F0E884B34B51EC180B4FF0FF324A
:1025000005F046FF002840F0DE84DDE914010022DA
:10251000002305F033FF002840F067879DF87B30EB
:10252000A94DAA4A2AF0800A0321472FC8BF1546A1
:1025300000220C9207910B91089210921392119223
:10254000002B3FF43AAF079A0132079235E793899F
:1025500099053FF503AF19EE104A906D03F0BEF8F0
:10256000A389FBE6284602F015FDB3E59BF8007051
:102570004AF0200A09E64AF0100A1AF0200F0D9BD3
:1025800000F04084073323F007031A465B6852F8D3
:10259000084B0D921E46002BC0F24384089B01336A
:1025A00000F0BC822AF08003079354EA060340F04F
:1025B000B782089B002B40F0B882DDF81CA00023F6
:1025C00008930B9352AD1FE10D9A002352F8041BA0
:1025D0008DF87B308DF8E4100D92E5E60D9C54F8F3
:1025E000045B00268DF87B60002D00F09085089B31
:1025F0005A1C00F051861A463146284603F0E0F88E
:102600000C90002801F02C810C9B0896591B0B9113
:1026100021EAE1719DF87B300D9407910C9610969C
:10262000139611968CE74AF0100A1AF0200600F073
:10263000C9830D9B073323F007035E6853F8084BEB
:102640000D932AF480630793002300228DF87B20EA
:10265000089A551C00F0C080079921F0800A54EABE
:10266000060140F0B780002A40F00786002BA6D173
:10267000079B13F001030B9300F0148430238DF8B3
:1026800047310DF24715BFE00D9B53F8042B09921B
:10269000002A80F2D583099A0D93524209929BF841
:1026A00000704AF0040A70E51AF0200F40F0D2845E
:1026B0001AF0100F40F0E7851AF0400F40F0A9869D
:1026C0001AF4007F00F0DF850D9B0A9953F8042B64
:1026D0000D9311705D46E4E69BF800708DF87B4029
:1026E00053E59BF800704AF0800A4EE55A4612F80E
:1026F000017B2A2F01F06D82A7F13003092B93464D
:1027000098BF002201F2E9801BF8017B02EB8202F4
:1027100003EB4202A7F13003092BF5D9089236E505
:102720004AF010030793079B13F0200600F059832B
:102730000D9B073323F007035E6853F8084B0D9396
:10274000012382E70D9B53F8044B0D9330234AF08D
:10275000020278278DF87C301D4B189307928DF874
:102760007D700026022370E79BF80070682F03BF7E
:102770009BF801704AF4007A0BF1010B4AF0400A11
:1027800003E59BF800706C2F03BF9BF801704AF0C3
:10279000200A0BF1010B4AF0100AF6E49BF80070D6
:1027A0004AF0080AF1E49BF800704AF0010AECE4F0
:1027B0009DF87B30002B7FF46EAD9BF800708DF898
:1027C0007B10E2E4FFFFEF7F988900109C890010E6
:1027D000A8890010CDF81CA0012B00F0A181022BCC
:1027E00052AD20D1189A04F00F032409D35C05F8E8
:1027F000013D44EA0674360954EA0603F3D152ABAC
:102800005B1BDDF81CA00B9308990B989DF87B309F
:1028100081424FF00002B8BF01460C92079110921E
:10282000139211928CE604F00703E40844EA46741C
:10283000F608303354EA06012A4605F8013DF2D184
:102840000799CC0700F1758252AB5B1B8A460B934C
:10285000DAE7652F40F3D780DDE914010022002379
:1028600005F082FD002800F0C681279BC14AC8F808
:102870000020013301340122072B28942793C8F844
:10288000042000F3DE8408F10808209B129A93428A
:1028900080F2D182169B179A1C44C8E90023279B1B
:1028A00028940133072B279300F3238408F10808A9
:1028B000129B5D1E002D7FF7D5AD102D279B41F398
:1028C0006781AD4F0E972246102619EE104A05E09B
:1028D00008F10808103D102D40F3C1840133103277
:1028E000072BC8E90076CDE92732F1DD26AA21467B
:1028F000484603F0BBFE00287FF422ADDDE9273215
:102900000DF1A408E6E7099B079A9E1A002E7FF7AF
:1029100090AD102E279B41F33C8097490F9522469E
:1029200019EE105A0E910C4604E0103E102E08F1DC
:10293000080819DD013310321021072BCDE92732A9
:10294000C8F80040C8F80410EFDD26AA294648461A
:102950000DF1A40803F08AFE00287FF4F1AC103ECC
:10296000102EDDE92732E5DC0F9D144601330E9A67
:10297000C8F800203444072BCDE92734C8F8046098
:1029800000F3A983089B0B9A9E1A002E08F10808F1
:102990007FF755AD102E279B40F30F8576480E909C
:1029A0004246214619EE108A044604E0103E102EDD
:1029B00002F1080216DD013310311020072BCDE99A
:1029C000273114605060F1DD26AA4146484603F0E5
:1029D0004DFE00287FF4B4AC103E102EDDE9273107
:1029E00029AAE8DC90460C4601330E9AC8F800206C
:1029F0003444072BCDE92734C8F8046000F3D481B0
:102A000008F108081BE5129B012B40F37381279EF8
:102A1000C8F80050013601340123072E2894279668
:102A2000C8F8043000F3968308F10808169B179A3B
:102A300001361C44072EC8E90023CDE9276400F3C2
:102A4000978308F10808DDE914010022002305F04E
:102A50008BFC002840F07B81129B0136013B013545
:102A60001C44072EC8F800502796C8F80430289454
:102A700000F3518108F108081A9BC8F804300136A8
:102A80001C44072E22ABCDE92764C8F800307FF73D
:102A9000E7AC19EE101A26AA484603F0E7FD002815
:102AA0007FF44EAC289C0DF1A408DBE4102EDDE988
:102AB000273222DD1D95102419EE105A04E0103E35
:102AC000102E08F1080817DD01332C491032072BAE
:102AD000C8E90014CDE92732F1DD26AA2946484687
:102AE0000DF1A40803F0C2FD00287FF429AC103ECC
:102AF000102EDDE92732E7DC1D9DC8F804600133A4
:102B0000B418072B1D4AC8F80020CDE9273400F37C
:102B10007D839DF87B3008F1080860E4CDF81CA0A7
:102B20000A2C76F1000380F0318330340123DDF884
:102B30001CA08DF847410B930DF2471564E619EE82
:102B4000101A26AA484603F091FD00287FF4F8AB3E
:102B5000289C0DF1A40855E419EE101A26AA48463F
:102B600003F084FD00287FF4EBAB289C0DF1A40852
:102B70005BE400BFD8890010EC890010DC890010EC
:102B8000102D279B20DD19EE107A102604E0103D51
:102B9000102D08F1080817DD0133AC4A1034072B5B
:102BA000C8E90026CDE92734F1DD26AA3946484692
:102BB0000DF1A40803F05AFD00287FF4C1AB103DCD
:102BC000102DDDE92734E7DC0133A04AC8F80450B2
:102BD0002C44072BCDE92734C8F800207FF74BACF5
:102BE00019EE101A26AA484603F040FD00287FF48B
:102BF000A7AB289C3FE4209A002A40F32B81DDE913
:102C000011739F42A8BF1F46002F0BDD279B013386
:102C10003C44072BC8E900572894279300F3D1853B
:102C200008F10808119E002FA8BFF61B002E00F324
:102C30004483119B1AF4806F2B440B9340F0DF8484
:102C4000209B129A934203DB1AF0010F00F0D2830B
:102C5000169A17991444C8E90012279A2894013249
:102C6000072A279200F3BB8508F10808129A0B99EE
:102C7000AE18761AD51AAE42A8BF2E46002E0DDD2C
:102C8000279BC8F8001001333444072BC8F80460B0
:102C90002894279300F3068608F10808002EA8BFA1
:102CA000AD1B002D7FF7DEAB102D279B40F3708707
:102CB000674F0E972246102619EE104A05E008F1DC
:102CC0000808103D102D40F3CA8201331032072B43
:102CD000C8E90076CDE92732F1DD26AA214648462B
:102CE00003F0C4FC00287FF42BABDDE927320DF1A3
:102CF000A408E6E71AF0010F7FF489AE279EC8F812
:102D00000050013601340123072E28942796C8F875
:102D100004307FF7AFAE19EE101A26AA484603F02A
:102D2000A5FC00287FF40CABDDE927640DF1A408B5
:102D3000A2E6302B3FF463AD3023023A05F8013CA4
:102D400052AB9B1ADDF81CA00B9315465CE5129B59
:102D50005D1E002D7FF790AE102D40F31F873C4A7B
:102D6000CDF820A0234619EE10AA0E921027144683
:102D700005E008F10808103D102D40F3E38201360C
:102D80001033072EC8E90047CDE92763F1DD26AAF5
:102D90005146484603F06AFC00287FF4D1AADDE9D9
:102DA00027630DF1A408E6E719EE101A26AA484693
:102DB00003F05CFC00287FF4C3AA289C0DF1A40852
:102DC000FFF73DBB1AF0100340F03E811AF04002BD
:102DD00000F0C8820D9A52F8044B0D921E46A4B220
:102DE0002FE4079B13F0100366D1079A12F04002FC
:102DF00000F0C6820D9A52F8044B0D921E46A4B202
:102E0000012322E453F8044B0D931AF0100F4FD115
:102E10001AF0400F48D044F3C036334624B2FFF7CF
:102E2000BABB2D2364428DF87B3066EB4606CDF8A5
:102E30001CA001230CE41AF0010F3FF413AB29E5A9
:102E40009BF800700D93FFF7A0B900BFDC8900105C
:102E5000EC890010279BB649C8F8001001330134F3
:102E60000121072B28942793C8F8041000F38084CD
:102E700008F10808002A40F04682129A0AF001037D
:102E800013433FF4EFAA169B179A1C44C8E900238A
:102E9000279B28940133072B279300F3648308F1C1
:102EA000080841E252ADAFE41AF4007F40F0AB8273
:102EB000E6173346FFF76FBB0D9B53F8044B0D939A
:102EC0000123FFF7C2BBDDE9140102460B4605F002
:102ED0007DFA002840F02C86612F00F07D85412F7F
:102EE00000F0A082089B013327F02003079300F035
:102EF000C285472B00F0A985DDE914014AF48072F0
:102F000000290B924FF00003C0F2418441EC1B0BEF
:102F10000E930C93079B462B00F07084452B00F01A
:102F20002285089B019324AB049321AB039320AB30
:102F3000029302230093484653EC1B2B00F0C4FF7E
:102F4000079B472B054640F05B861AF0010F56465B
:102F5000DDF82CA040F0DF84249B5B1B1293079BC1
:102F6000472B00F01683079B462B00F08584209B9F
:102F70001193119B079A013B412A209300F0E685AB
:102F8000FAB20021002BB8BF119B8DF88820BABF80
:102F9000C3F101032D222B22092B8DF8892040F348
:102FA0006E850DF19704DFF898C1224610468CFB20
:102FB0000321DA17C2EBA10202EB8201A3EB41016C
:102FC000303100F8011C19466329134600F1FF3225
:102FD000ECDC3033D9B2831E9C4202F8011C40F273
:102FE0000B8613460DF18A0201E013F8011B02F86B
:102FF000011B9C42F9D10DF199030DF18A021B1AB4
:10300000134422AA9B1A1A93129B1A9A012B1A4450
:103010000B9240F3AF850B9B169A13440B930B9ABC
:10302000002326F4806622EAE27246F4807A109346
:103030000792139311930E9B002B40F0D9820893B3
:103040009DF87B30FFF77CBA0D9B53F8044B0D9332
:10305000FFF7F7BA0D9B0A9853F8041B0D93C2179C
:10306000C1E900025D46FFF71CBA199B002B3FF433
:1030700012A9199B1B78002B3FF40DA99BF8007037
:103080004AF4806AFFF781B8CDF81CA0FFF74BBB6C
:10309000284B18931AF0200654D00D9B073323F0C9
:1030A00007035E6853F8084B0D931AF0010F09D01F
:1030B00054EA060306D030238DF87D704AF0020AE8
:1030C0008DF87C302AF4806307930223FFF7BDBAA2
:1030D000194B1893DEE719EE101A26AA484603F09A
:1030E000C5FA00287FF42CA9289C0DF1A408FFF74D
:1030F000A0B919EE101A26AA484603F0B7FA00281C
:103100007FF41EA9289C0DF1A408FFF7D1BB089AF3
:103110000C95062A294628BF062208952B460792B9
:10312000064D0D940B92109113911191FFF708BA6F
:10313000D8890010A8890010BC890010D08900101F
:10314000676666661AF0100370D00D9B53F8044B47
:103150000D93AAE719EE101A26AA484603F086FA3C
:1031600000287FF4EDA8DDE927640DF1A4085DE4F3
:1031700019EE101A26AA484603F078FA00287FF4C0
:10318000DFA8DDE927640DF1A4085CE4079B0022B9
:1031900003F48063CDE90B7808EE109A0DF5A47A5C
:1031A000DDF86490174698460CE00023204631462F
:1031B0000A2205F049F90A2C76F100031CD30446D3
:1031C0000E46AA4620460A220023314605F03CF965
:1031D00030320AF1FF3501370AF8012CB8F1000F3F
:1031E000E3D099F800309F42DFD1FF2FDDD00A2CC9
:1031F00076F1000380F0E580CDF864901297DDF859
:1032000030800B9F18EE109AFFF7F9BA19EE101ADA
:1032100026AA484603F02AFA00287FF491A89DF8D0
:103220007B30289C0DF1A408FFF7D9B81AF04002B2
:1032300000F0B6800D9A52F8044B0D921E46A4B2CF
:1032400033E719EE101A26AA484603F00FFA0028B1
:103250007FF476A8289C0DF1A408FFF716BB14464E
:1032600001330E9AC8F800202C44072BC8F80450EC
:10327000CDE927347FF7F4A80BE4012BCDF81CA08F
:103280007FF4ADAA51E40D9B0A9953F8042B5D46D7
:1032900011600D93FFF705B9284608960D94FEF7C7
:1032A0008FFE20EAE0719DF87B300B9007910C9621
:1032B000109613961196FFF743B9102E279B40F3F3
:1032C0009484BA480E904246214619EE108A10277F
:1032D000044604E00832103E102E40F337820133DA
:1032E0001031072BC2E90047CDE92731F2DD26AACC
:1032F0004146484603F0BAF900287FF421A8DDE9E9
:10330000273129AAE7E7169B17991C44C8E900133F
:10331000279B28940133072B279300F3248108F17E
:103320000808002AC0F2FA82129AC8F80050013345
:103330001444072BCDE92734C8F804207FF790A860
:10334000FFF7A7BBDDF820A01C4601360E9BC8F88E
:1033500000302C44072ECDE92764C8F804507FF7CD
:1033600089ABD8E40D9B1AF4007614BF53F8044BD4
:1033700053F8044B0D931CBF1646E4B2FFF761B936
:10338000079B13F400760D9B14BF53F8044B53F8BE
:10339000044B0D931CBF1646E4B20123FFF755B949
:1033A0000D9B1AF4007614BF53F8044B53F8044BEA
:1033B0000D931CBF1646E4B277E67C4A0E92FFF7E7
:1033C00013BB1C9B1B99ED1A1A46284603F0E0F824
:1033D00099F801300BB109F10109204631460A2262
:1033E0000023002705F030F8E9E62D238DF87B3027
:1033F000FFF796B8129A0B99AE18761AD51AAE4204
:10340000A8BF2E464AE444F3C016334664B2FFF721
:10341000C2B80D9B0A9953F8042B0D9311805D4699
:10342000FFF73FB830238DF87C3058238DF87D307E
:10343000089B632B4AF0020400F3D38200230C9311
:1034400039ADDDE914124AF481730B93002A27F099
:103450002003A2460793C0F29B81002342EC1B1B72
:103460000E93612F00F04C83412F7FF453AD20AABF
:1034700051EC1B0B03F00EF800224FF07F5304F0C9
:103480000BFD02460B4643EC182B0022002304F0F0
:103490006BFF08B101232093454B0F93089B1D95AB
:1034A000CDE9107BCDE912A80CEE109ADDF83CB006
:1034B00059EC188B5E1E2C4605E000220023013ECD
:1034C00004F052FFE0B93B4B00224046494604F06D
:1034D000E3FC8946804604F08FFF054604F072FC49
:1034E0000B4602464946404604F01EFB1BF80530D9
:1034F000A24604F8013B731C374680468946DCD15E
:1035000049EC188B2C4BDDF84C8051EC180B002249
:103510003E461CEE109ADDE9107BCDF840A01195D7
:10352000DDF848A01D9D04F047FF002840F03882D8
:1035300051EC180B204B002204F016FF18B1119B20
:10354000D90700F12D82002E334606DB01332344D8
:10355000302204F8012BA342FBD1631B5646129381
:10356000DDF82CA0FBE419EE101A26AA484603F059
:103570007DF800287EF4E4AEDDE92734209A0DF1D1
:10358000A408CEE619EE103A986D02F0A7F8FEF7FF
:10359000A3BE209B1193DA1C02DB089A93420DDD37
:1035A000023F27F020030793E3E400BFEC890010FB
:1035B000BC890010000030400000E03FDDE911321E
:1035C0009342C0F28081F00740F19782169A13442B
:1035D0000B93710503D5119B002B00F360820B9BAD
:1035E00023EAE3730793672700231093139322E5DD
:1035F0002D2300228DF87B300892FEF7A4BF129B8A
:10360000CDF838B0DDF84CB00B9E199FCDF82CA04A
:10361000EB1808934246DDF870A0109B0F9519EE49
:10362000108AA446BBF1000F30D0002B71D1013FAE
:103630000BF1FF3B1B9BC2E9003A279B0133D444AB
:10364000072BCDF8A0C0279367DC0832089B387899
:103650009B1B8342A8BF0346002B1C460BDD27980B
:1036600001309C440728C2E90063CDF8A0C0279030
:103670005FDC38780832002CACBF051B0546002DF6
:1036800017DC0644109BBBF1000FCED1002B40D1BC
:103690000F9D129BDDF82CA0DDF838B01997EB18C0
:1036A0009E429046324628BF1A4664460B92FFF768
:1036B000C7BA102D27981FDD1024634604E0103D83
:1036C000102D02F1080216DD0130B449103307282D
:1036D000C2E90014CDE92703F1DD26AA4146484698
:1036E00002F0C4FF00287EF42BAE103D102DDDE962
:1036F000270329AAE8DC9C460130A84B5560AC445E
:103700000728CDE9270C13604DDC387808320644D1
:10371000B8E7109B013B10938CE726AA4146484628
:1037200002F0A4FF00287EF40BAEDDF8A0C029AAA9
:103730008CE726AA4146484602F098FF00287EF40E
:10374000FFAD3878DDF8A0C029AA94E790460C4672
:1037500001330E9AC8F800203444072BCDE92734F2
:10376000C8F8046000F3638108F10808FFF761BA44
:1037700019EE101A26AA484602F078FF00287EF4B7
:10378000DFAD209A289C0DF1A408FFF773BB0C93C2
:10379000DDE9141202F100430BEE903A2D230BEEFB
:1037A000101A0E935DE626AA4146484602F05EFFD7
:1037B00000287EF4C5AD3878DDF8A0C029AA0644FB
:1037C00060E719EE101A26AA484602F04FFF0028BB
:1037D0007EF4B6AD289C0DF1A408FFF723BA19EECC
:1037E000101A26AA484602F041FF00287EF4A8AD30
:1037F000209B289C0DF1A408FFF738BA089B019381
:1038000024AB049321AB039320AB029303230093D7
:10381000484653EC1B2B00F057FB0378302B054632
:1038200000F09A81209B089A56461344DDF82CA09C
:10383000EC1851EC1B0B0022002304F095FD10B195
:103840002346FFF78ABB249BA342BFF486AB3021FB
:103850005A1C24921970249B9C42F9D8FFF77DBB17
:10386000089B07930B930D949DF87B300890109064
:1038700013901190FEF764BE209A1192002A40F333
:103880009181089906F001030B4340F03081119BB0
:103890000B936627730500F103810B9B23EAE37307
:1038A0000793A1E619EE101A26AA484602F0DEFE9A
:1038B00000287EF445AD209D129B289C5D1B0DF1D8
:1038C000A408FFF7EBB9129B169A9A18119B0B925A
:1038D000002B40F354816727DCE700230893FEF7B1
:1038E00056BC19EE101A19EE900A26AA02F0BEFE76
:1038F00000283EF4DEADFEF72ABD6B6EDC0705D472
:10390000AB89980502D4A86D01F0E8FE4FF0FF33B3
:103910000A93FEF726BD089BEC188AE75642103240
:1039200080F270811D480E904246214619EE108AA1
:103930001027044603E00832103E102E5BDD0133F1
:103940001031072BC2E90047CDE92731F3DD26AA64
:103950004146484602F08AFE00287EF4F1ACDDE9DB
:10396000273129AAE8E7089B5C1C24AB049321AB10
:10397000039320AB029302230093019453EC1B2B7F
:10398000484600F0A1FA054656462C44DDF82CA026
:103990004FE7024A0E92FEF7E9BF00BFEC89001024
:1039A000109B24930F9B14F8012CD97B8A42234649
:1039B00009D1302003F8010C249B5A1E249213F8DD
:1039C000012C9142F6D0392A0BBF0F9A0132927A1C
:1039D000D2B203F8012CC0E530238DF87C30782377
:1039E00024E5591C4846FDF7C3FE0546002800F0B3
:1039F0000C810C9025E590460C4601330E9AC8F8D0
:103A000000203444072BCDE92734C8F804607FF741
:103A100046AA19EE101A26AA484602F027FE0028E8
:103A20007EF48EACDDE927340DF1A4087CE419EEB8
:103A3000101A26AA484602F019FE00287EF480AC2F
:103A4000289C0DF1A408FFF7F4B8089B002B08BFD1
:103A500001230893159B4AF48072002B0B92C0F24D
:103A60009B809DED147B0E900C90B0EE47BAF0EE6B
:103A700067BAFFF756BA06230893FFF73DBA002945
:103A800040F0A48030228DF88A200DF18B02303373
:103A900002F8013B22ABD31A1A93FFF7B5BA672796
:103AA00019990B78FF2B00F0A3800024119A20466F
:103AB00003E001300131FF2B08D0934206DAD21A1D
:103AC0004B78002BF5D10B780134F4E71991119262
:103AD00013901094109A139B1C9913440B9A01FB9A
:103AE00003230B9323EAE3730793FFF7A4BA169B10
:103AF000D31819440B916627CCE6119B0B9368E50C
:103B000020AA51EC1B0B02F0C5FC00224FF07F53A2
:103B100004F0C2F902460B4643EC182B00220023A6
:103B200004F022FC08B1012320933C4B0F93B5E431
:103B3000159B3B4D3B4A002BB6BF2D239DF87B3098
:103B40008DF87B302AF0800AFEF7EEBC07F10F02F9
:103B5000D2B20121FFF716BA51EC1B0B0022002351
:103B600004F002FC00287FF45DAE089BC3F1010362
:103B7000209358E6F4077FF552AAFFF74CBAC3F139
:103B800001031A4422EAE2730B92079367272BE59D
:103B9000254A0E92FFF764BB0C90F9E5224B0E9379
:103BA000FFF7D3BB089A06F0010656EA020304D1D8
:103BB0000123079366270B9316E5169B01331A44DE
:103BC00022EAE2730B92079366270DE50DF18A0254
:103BD0005DE70D9B9BF80170934653F8042B0D9302
:103BE00042EAE2720892FEF7D0BA0F4A0E92AFE5AF
:103BF0000023109313936DE702231A93FFF704BA7F
:103C0000089CC1E6084A0E92F7E619EE102A93893D
:103C100043F040039381FEF79ABB00BFA8890010D0
:103C2000A0890010A4890010EC89001070B50C4622
:103C30008989ADF58E6D21F00201ADF81410616E29
:103C40001B91E189ADF81610E1690991616A0B9148
:103C50001CA9029106914FF48061064604910791D8
:103C600018A80021CDE90032089101F031FDDDE90D
:103C7000003202A93046FEF713FA051E07DB02A93F
:103C8000304601F053F9002818BF4FF0FF35BDF85A
:103C900014305B0603D5A38943F04003A381189831
:103CA00001F018FD28460DF58E6D70BD38B5334B0B
:103CB0001B6805460C460BB19A6B12B3B4F90C3075
:103CC00018079AB225D5216900292DD012F00100DC
:103CD00007D00020A06060694042A06139B1002097
:103CE00038BD950758BF6069A0600029F7D112065A
:103CF00058BF0846F4D543F04003A3814FF0FF308E
:103D000038BD184601F046F9B4F90C3018079AB2DC
:103D1000D9D4D1062AD5520714D4216943F0080317
:103D2000A3819AB20029D1D102F42070B0F5007FAE
:103D3000CCD02146284601F0D3FCB4F90C302169DF
:103D40009AB2C3E7216B51B104F14002914204D011
:103D5000284601F017FAB4F90C30002222632169D9
:103D60000022C4E9001223F02403D7E7092243F01C
:103D700040032A604FF0FF30A38138BD6800002067
:103D8000024B13B1024800F005B870470000000074
:103D9000B9500010002301461A46184603F0C6BB6E
:103DA0002DE9F04F03690C69A34283B0C0F287800C
:103DB000013C01F11405A30000F11408009355F82B
:103DC000243058F82420013381469A4208EB8400BD
:103DD00005EB84070190B2FBF3F63BD30023AE461C
:103DE00040469B465EF804AB02681FFA8AFC06FB5D
:103DF0000C334FEA134C4FEA1A4A06FB0ACA1FFA61
:103E000083FCABEB0C0C1FFA8AF31CFA82FCC3EBAD
:103E1000124202EB2C421FFA8CFC4CEA024377451B
:103E200040F8043B4FEA224B4FEA1A43DAD2009B98
:103E300058F8033073B9019B043B984504D307E05D
:103E4000984504F1FF3403D253F80429002AF7D02F
:103E5000C9F81040484602F007F800282BDB01366D
:103E60004046002355F8041BD0F800C08AB29A1AC5
:103E70000B0C12FA8CF2C3EB1C4303EB224392B2FD
:103E800042EA0342AF4240F8042B4FEA2343E9D20F
:103E900058F8242008EB84036AB9043B984504D3FE
:103EA00007E0984504F1FF3403D253F80429002AAF
:103EB000F7D0C9F81040304603B0BDE8F08F0020BD
:103EC00003B0BDE8F08F00BF2DE9F04F2DED068B5C
:103ED000016C95B090469946CDE90489279D04462A
:103EE00041B1426C4A60012393408B6001F05AFD5E
:103EF00000232364B9F1000AB4BF012300232B601F
:103F00007B4BBCBF2AF0004ACDF814A033EA0A0369
:103F100000F0B2809DED047B002251EC170BB0EE57
:103F2000479AF0EE679A002304F01EFA074680B124
:103F3000269A01231360289B002B00F0DA826D483B
:103F40001860431E0393039815B0BDEC068BBDE8C3
:103F5000F08F12AB019313AB0093204653EC192B57
:103F6000B0EE498AF0EE698A02F046F85FEA1A5626
:103F7000054640F09980DDE912763E4406F2324073
:103F8000202840F3AA83C0F140000AFA00FA06F2A2
:103F9000124028FA00F04AEA000003F003FF012370
:103FA000013E0D93A1F1F871534B002203F0BCFDCB
:103FB00049A3D3E9002303F06FFF49A3D3E900230A
:103FC00003F0B4FD80463046894603F0FBFE46A36D
:103FD000D3E9002303F060FF02460B464046494602
:103FE00003F0A4FD8046894604F006FA00228346C9
:103FF00000234046494604F0C1F9002840F06C8295
:10400000BBF1160F00F25B823C4B03EBCB03D3E911
:10401000002351EC190B04F0B1F9002874D00023EF
:10402000BE1B0C93731E0BF1FF3B069300F14E82F7
:1040300000230993BBF1000F6DDA099BCDF81CB08A
:10404000A3EB0B030993CBF100030B93249B092BE8
:104050004FF0000B68D8052B40F33D83043B2493BD
:104060000026249B023B032B00F29886DFE813F026
:104070004D044A0441042404269A42F20F73CAF301
:10408000130A13605AEA08031DD1289B002B00F085
:104090007C861B4B03930833289A0398136015B052
:1040A000BDEC068BBDE8F08F18EE903AC3F3130316
:1040B00051EC190B43F07F510D97A6F2FF36129F7A
:1040C00041F4401170E7289B002B40F0D9830D4B41
:1040D000039338E7AFF3008061436F63A787D23F54
:1040E000B3C8608B288AC63FFB799F501344D33FE7
:1040F0000000F07FD98900100000F83F488B0010C5
:10410000008A0010FC890010BE1B731E069300F18C
:104110009A840C900990069B5B44CDE9063B0023F2
:104120000B93249B092B96D90023CDE92433012638
:104130004FF0FF330A960893089B0F9300216164A8
:10414000204601F009FC0390002800F02F86039B15
:104150002364089B0E2B00F2F980002E00F0F680FD
:104160000799002940F37184BD4B01F00F0203EB66
:10417000C2034FEA2118C905D3E9006740F103845F
:10418000B84B51EC190BD3E9082303F0AFFF41EC16
:10419000180B08F00F084FF0030AB8F1000F13D006
:1041A000DFF8C09218F0010F09D030463946D9E93E
:1041B000002303F071FE0AF1010A06460F465FEA8A
:1041C000680809F10809EDD151EC180B32463B465D
:1041D00003F08CFF41EC1A0B0C9B5BB157EC1A6B94
:1041E000A14B1AEE100A0022394604F0C7F8002845
:1041F00040F05285504603F0E5FD53EC1A2B03F0D6
:104200004BFE9A4B002203F091FC089B8046A1F1E3
:104210005079002B00F0F383079B1093089B0E93BB
:104220000A9B002B00F0C0840E9A8D4B9049DDF85C
:104230000CA003EBC20353E90223002003F056FF56
:1042400042464B4603F070FC59EC1A8B41EC180BBC
:1042500049461AEE100A04F0CFF8074603F0B2FD03
:1042600002460B461AEE100A494603F05DFC303751
:104270000AF8017B53EC182B06460F4604F07EF833
:10428000002840F055854FF000080AEE105ACDF88E
:1042900044B055465BEC18AB08EE104A44462AE0A1
:1042A0000E9B01349C424BDA724B50465946002219
:1042B00003F0F2FD6F4B002282468B4630463946B2
:1042C00003F0EAFD8946804604F096F8074603F0BD
:1042D00079FD02460B464046494603F025FC30373F
:1042E00005F8017B52465B4606460F4604F046F849
:1042F000002840F0188532463B465B49002003F019
:1043000013FC52465B4604F039F80028C8D0109BD5
:10431000039A0793AA4618EE104A1AEE105A02E0C2
:10432000924500F0EA84D1461AF8013D392BF7D0C6
:104330000133DBB28AF80030079B01330793ABE10E
:10434000DDF844B01AEE105A18EE104A139B002BF9
:10435000C0F29480079A0E2A00F39080404B03EB42
:10436000C203D3E90089259B002B1BDA089B002B95
:1043700018DC40F05D83404B00224046494603F084
:104380008BFD02460B4651EC190B04F001F8DDF8E9
:1043900020A05646002800F0D082259BDDF80C8036
:1043A000DF43D2E242464B4651EC190B03F09EFE2E
:1043B00004F022F80646834603F004FD42464B46CD
:1043C00003F06AFD0B46024651EC190B03F0ACFBFF
:1043D000DDF80CA0334630330AF8013B089B012B73
:1043E00000F08E834FF0010B08EE105A08EE904A51
:1043F0001D465446DA461DE042464B463046394695
:1044000003F074FE03F0F8FF834603F0DBFC424642
:104410004B4603F041FD0AF1010A0B4602463946BC
:10442000304603F081FB0BF13003AA4504F8013B51
:1044300000F061830F4B002203F02EFD00220023C9
:1044400006460F4603F090FF0028D5D0A24618EE8E
:10445000105A18EE904A079B01330793D1461BE18F
:10446000488B0010208B00100000F03F00001C4023
:104470000000E03F00002440000014400A9A002A97
:104480003FD0249A012A40F39C82089B03F1FF3815
:104490000B9B4345C0F26E82A3EB0808089B002BE0
:1044A000C0F26683069A1A440692099A17461A447D
:1044B00009920121204601F023FB064625E0012355
:1044C000BE1B0C93731E06937FF5B2ADC6F10103BC
:1044D000099300230693ADE5584603F073FC42466A
:1044E0004B4603F041FF00287FF48AAD0BF1FF3B00
:1044F00086E5874B0393039815B0BDEC068BBDE8AA
:10450000F08FDDE90976DDF82C80002F0CDD069AAE
:10451000002A09DD0999BA421346A8BF3B46C91AC9
:10452000FF1AD31A099106930B9BDBB10A9B002B50
:1045300000F08282B8F1000F0FDD3146424620467E
:1045400001F0BAFB2A4601460646204601F006FB6A
:1045500029460546204601F025FA0B9BB3EB0802DD
:1045600040F000830121204601F0CAFABBF1000FA0
:10457000824600F3B780249B012B40F385814FF0E6
:1045800000090120BBF1000F40F0B880069A1044EA
:1045900010F01F0000F09680C0F12003042B40F3C0
:1045A000F883099BC0F11C000344024409930744AB
:1045B0000692099B002B05DD29461A46204601F08C
:1045C000DBFB0546069B002B05DD51461A462046BF
:1045D00001F0D2FB82460C9B002B40F03681089BF9
:1045E000002B40F31D810A9B002B40F0A080079B0D
:1045F00001330793DDF80C80DDF82090012707E0F8
:10460000294600230A22204601F0D6F90137054643
:1046100051462846FFF7C4FB4F4500F1300008F82B
:10462000010BEDDB089A002AC8BF9346039AD8BF56
:104630004FF0010B034693440027294601222046F0
:10464000049301F099FB5146054601F00DFC00284A
:1046500040F3A5811BF8013C039A0BF1FF3B04E0FA
:104660005A4500F0A7811BF8013D392B0BF10109D8
:10467000F6D001338BF800305146204601F092F914
:1046800056B12FB1B74203D03946204601F08AF91E
:104690003146204601F086F92946204601F082F98C
:1046A000002389F80030269B079A1A60289B002B6C
:1046B0003FF449AC0398C3F8009015B0BDEC068BED
:1046C000BDE8F08F1C20099B03440993069B03441B
:1046D000074406936DE70126C3E4C0F1200008FA01
:1046E00000F05AE401465A46204601F0E5FA249BC0
:1046F000012B824640F3D5814FF00009DAF81030E3
:104700000AEB8303186901F0ABF9C0F120003DE723
:10471000D8890010314600230A22204601F04CF9C6
:104720000F9B002B064640F32383CDE90783002F20
:1047300000F31981B9F1000F40F0FD81B046049BF0
:10474000039F089903F001027B1E1944249B0B92DE
:10475000134309910A9351462846FFF721FB31463E
:104760008346284601F080FB42465146814620465A
:1047700001F09CFBC26801460BF13003002A42D1D4
:1047800006902846089301F06FFB06990490204696
:1047900001F008F9049A089B1AB90A99002900F057
:1047A000D782B9F1000FC0F28881249949EA010942
:1047B0000B9951EA090100F08081002A00F3E88199
:1047C000099A3B7007F101099742CB4600F0E68158
:1047D000294600230A22204601F0EEF84645054608
:1047E00031464FF000034FF00A02204612D001F08C
:1047F000E3F84146064600230A22204601F0DCF891
:104800004F468046A7E72046049301F0CBF8049B6F
:104810000122C6E701F0D0F84F46064680469AE7E7
:10482000249B022B78DC0A9B002B80D1079B5146EE
:10483000013328460793FFF7B3FADDF80CB000F117
:1048400030030BF8013B0027F7E65146284601F0FC
:104850000BFB0028BFF6C3AE294600230A222046E0
:1048600001F0AAF8079B03F1FF380A9B0546002BCD
:104870007FF450AF0F9B002B40F371820893B9E691
:10488000BD4B0393033307E4DDE9041200297FF4F1
:1048900076AEC2F31303002B7FF471AEB74B134017
:1048A000002B00F03E82099B01330993069B0133E4
:1048B00006934FF0010964E601230A93259B079AAA
:1048C00013440F930133012B1F460893B8BF0127F0
:1048D0000021172F61647FF733AC012204235B00B2
:1048E00003F11400B842114602F10102F7D96164E4
:1048F00026E401230A93259B002B4BDD0F9308939D
:104900001F46E5E700230A93D8E700230A93F2E75E
:104910000F9BCDF81C800893089B002B7FF43DADC6
:1049200051460522204601F047F8014682462846B6
:1049300001F09AFA00287FF730AD0398079F3123E2
:10494000804600F8013B013703905146204601F0B4
:1049500029F87B1CDDF80C900793CDF80C80002E15
:104960007FF496AE98E631463A46204601F004FAC6
:104970000646DFE60B9BCDF82C80A8EB03039B4497
:104980004FF000088AE54FF0020AB0EE498AF0EED7
:10499000698A02E4012325930893FFF7CDBB03D175
:1049A000049BDB073FF556AED9461BF8013D302B83
:1049B000FAD061E6079B039A013307933123137002
:1049C0005AE60D9A002A00F0638103F23343069AF7
:1049D000DDF82C801A440692099A17461A44099267
:1049E00067E5504603F0EEF953EC1A2B03F054FA46
:1049F000634B002203F09AF88046A1F15079614B95
:104A0000002251EC1A0B03F08FF842464B46064643
:104A10000F4603F0D1FC002840F07F813046394634
:104A2000424609F1004303F0A9FC00283FF48EAC94
:104A30004FF0000A5646B0E429460B9A204601F092
:104A40003BF905468EE50C9040E500F04E81079A53
:104A50004D4B564206F00F0203EBC203D3E900238D
:104A600051EC190B03F018FA361141EC1A0B00F057
:104A70008881464F00234FF0020AF20706D5D7E996
:104A8000002303F009FA0AF1010A0123761007F165
:104A90000807F2D1002B3FF49FAB41EC1A0BFFF754
:104AA0009BBB049B002B7FF427AEDDE90412C2F30D
:104AB0001303002B3FF4F2AE1EE6002A12DD294656
:104AC00001222046049301F057F95146054601F0B2
:104AD000CBF90028049B40F33581392B00F013817A
:104AE0000BF13103B94609F8013B079B0133374607
:104AF00007934646C0E5A24618EE105A18EE904AB3
:104B000002460B4603F012F842464B4606460F4655
:104B100003F052FC60B942464B463046394603F03A
:104B200023FC00283FF497AC5FEACB717FF593AC90
:104B3000039AFFF7F8BB7168204600F00DFF0746A7
:104B4000002800F03A81336902339A0006F10C0123
:104B50000C30FDF7BDF839460122204601F00CF972
:104B60008046ECE52946204601F0A6F80546F9E422
:104B7000DDE908239F1A9CE4FC8900100000F07F07
:104B800000001C4000001440488B0010208B0010D7
:104B9000392B00F0B880B9460133A4E7079A0132F7
:104BA00037460792464648E50E988D4901EBC0010D
:104BB00042464B4651E9020103F06EF95AEC1A9B4A
:104BC00041EC180B51461AEE100A03F015FC07468B
:104BD00003F0F8F802460B461AEE100A514602F0AE
:104BE000A3FF06460E98DDF80C803037012808F840
:104BF000017B0F4600F0BA800E9B039ACDF838B0C7
:104C000013449B46C246774B00223046394603F098
:104C100043F98946804603F0EFFB074603F0D2F8DC
:104C2000303702460B464046494602F07DFF0AF8FF
:104C3000017BDA4506460F46E5D1DA46DDF838B0A5
:104C4000694B59EC188B002218EE100A494602F005
:104C50006DFF32463B4603F091FB00286DD118EE04
:104C6000102A4B466049002002F05EFF32463B4668
:104C700003F0A2FB00283FF469ABD1460AF1FF3AEA
:104C800019F8013C302BF8D0109B0133079303E552
:104C9000129BC3F136039AE6089B002B3FF4A1AEAA
:104CA0000F9B002B7FF752AB079A0E93013A4D4BA7
:104CB00010921AEE100A3946002203F0EDF802466F
:104CC00016460F460AF1010003F07CF832463B46D7
:104CD00003F0E2F8454B002202F028FF47EC1A6B84
:104CE0008046A1F15079FFF79BBA4FF0020AB0EE6F
:104CF00049AAF0EE69AAFFF76FBA079B0133079341
:104D00003123FFF717BB079BBB46013307933923BA
:104D100037460BF8013B46469EE44FF0000A5646E4
:104D20000BE699462DE4AA4618EE104A1AEE105AE0
:104D3000109B01330793D146AEE4109B039A07936F
:104D4000FFF7F1BA7FF4CEAEDA077FF5CBAEC4E65B
:104D5000392BD8D0B9F1000F3FF7C2AEC2E6249B81
:104D6000022B3FF7D5ADCDF81C805FE5C24667E763
:104D7000249B022B3FF7CCAD0F9BCDF81C800893F2
:104D8000D5E44FF0020AFFF727BA194B0393FFF758
:104D9000DAB83FF40EACC0F13C0094E4002666643F
:104DA0003146204600F0D8FD039068B9114B1248F7
:104DB00000224FF4D57102F0FFFB0E4B0E483A462D
:104DC00040F2EA2102F0F8FB039B236401224FF03A
:104DD000FF3325960F930A920893FFF7B7BA00BFE7
:104DE000488B0010000024400000E03F00001C4001
:104DF000008A00100C8A0010208A0010B1F90C20E3
:104E00002DE9F0410C461107804647D4636842F40F
:104E10000062002BA2815EDDA56A002D58D0002320
:104E2000D8F80060C8F8003093B212F4805256D11E
:104E30000123E1694046A847431C67D0A389A56ABE
:104E40005F0705D56368C01A236B0BB1E36BC01A0B
:104E5000E169024600234046A847411C41D1D8F8E9
:104E60000030002B3DD01D2B01D0162B56D1A3892D
:104E70002269226023F4006300216160A381216B19
:104E8000C8F8006021B304F14003994202D04046C3
:104E900000F078F900202063BDE8F0812669BEB1FA
:104EA00093B2256826609A070CBF63690023AD1B87
:104EB000A3600BE02B463246E169676A4046B8477B
:104EC000B0F1000CA5EB0C05664417DD002DF1DCFC
:104ED0000020BDE8F081E36B002B9DDCF8E7206D3E
:104EE000AEE7B4F90C302269226023F40063A38199
:104EF0000022DB046260C2D52065C0E7A38943F0CD
:104F000040034FF0FF30A381BDE8F081D8F80030B6
:104F1000002B93D01D2B06D0162B04D0A38943F071
:104F20004003A381D5E7C8F80060D1E738B50C4647
:104F3000054608B1836BA3B1B4F90C00B8B1636E38
:104F4000DB0701D4810515D528462146FFF756FF1A
:104F5000636EDA07054602D4A3899B050ED5284661
:104F600038BD00F017F8B4F90C000028E7D1054669
:104F7000284638BDA06D00F0AFFBE5E7A06D00F05E
:104F8000ADFB284638BD00BF014900F079BB00BF2A
:104F9000957600102DE9F0478246394800F09CFBD9
:104FA000DAF83840002C66D1DAF80450354ACAF8ED
:104FB0003C200323CAE9B843DFF8DC90DFF8DC804B
:104FC000314F324E04230AF53B72CAF8E8222146DB
:104FD000C5E90243C5E90044C5E904446C660822FA
:104FE000AC6105F15C00FCF70DFFC5E90759C5E9A7
:104FF0000987EE6205F1580000F06AFBDAF8085004
:10500000234BEB602146C5E90044C5E904446C66C6
:10501000AC60AC61082205F15C00FCF7F3FEC5E969
:105020000759C5E90987EE6205F1580000F050FB09
:10503000DAF80C50174BEB602146C5E90044C5E98E
:1050400004446C66AC60AC61082205F15C00FCF7BE
:10505000D9FE05F15800C5E90759C5E90A76C5F832
:10506000248000F035FB0123CAF838300448BDE83D
:10507000F04700F033BBBDE8F047014800F02EBB1D
:105080009C0E0020894F0010696500108965001092
:1050900009000100120002000565001029650010DA
:1050A000014800F019BB00BF980E0020014800F035
:1050B00015BB00BF980E002038B5084B084D5B1B90
:1050C0009C1007D0043B1D44013C55F80439984717
:1050D000002CF9D1BDE8384003F060BE240A00205E
:1050E000200A0020F8B5244F0C460646FCF7DCFEEB
:1050F000BA685568C4F57E630F3325F003052B4469
:1051000023F47F6323F00F03A3F58054B4F5805F8D
:1051100007DB00213046FCF73DFFBB682B4498427B
:1051200004D03046FCF7C6FE0020F8BD6142304690
:10513000FCF730FF01300DD0104ABB682D1B45F045
:1051400001055D60136830461B1B1360FCF7B2FE5F
:105150000120F8BD00213046FCF71CFFBA68831A15
:105160000F2BDEDD43F001035360054B03491B6841
:10517000C01A0860D5E700BF980400205C0E00202C
:10518000A0080020002961D0F8B50C460646FCF7BF
:105190008BFE54F8042C7B4FA4F1080522F001018A
:1051A00005EB010CB868DCF80430604523F003031C
:1051B00000F08B80D207CCF8043032D454F8082C9D
:1051C000AD1A1144AA6807F1080082426AD00CEBBC
:1051D0000304D4F804E0EC68D4601EF0010FA26070
:1051E00000F0978041F001036B60CCF80010B1F53E
:1051F000007F35D27A68CB0848090121013381400C
:105200001143796007EBC30257F83310083AC5E938
:10521000021247F83350CD603046BDE8F840FCF745
:1052200049BE0CEB03025268D00710D4194407F1B1
:105230000800DCF80830834273D0DCF80C20DA6018
:10524000936041F001036B606950D0E7704741F013
:105250000103B1F5007F44F8043CCCF80010C9D339
:10526000B1F5206F4FEA512348D28B0903F1390081
:1052700003F13802C300F818FB580838984259D097
:105280005A6822F003028A4202D99B689842F7D1F9
:10529000D868C5E902308560DD603046BDE8F84079
:1052A000FCF708BE0CEB03025268D20763D40B4430
:1052B000DCE90212CA60916043F001026A60304684
:1052C000EB50BDE8F840FCF7F5BD0B44D10707D41F
:1052D00054F8082CAD1A1344D5E90212CA60916043
:1052E00043F001026A60284ABD6012689A4293D86E
:1052F000264B30461968FFF7F5FE8DE7142B0AD9C7
:10530000542B1FD80B0B03F16F0003F16E02C30087
:10531000B1E719448DE703F15C0003F15B02C300C0
:10532000A9E741F00103C7E90455C5E902006B6034
:10533000695071E779689210012404FA02F20A4375
:105340007A60A6E7B3F5AA7F06D8CB0B03F1780005
:1053500003F17702C3008EE740F25452934206D81D
:105360008B0C03F17D0003F17C02C30083E74FF453
:105370007E737E227FE741F001036B60CCF8001062
:105380004AE700BF98040020A40800208C0E0020EB
:105390009368002B00F085802DE9F04FB1F90C30B7
:1053A0000C461907804683B0174698B225D5236965
:1053B0001BB310F002033D682DD04FF0000ADFF858
:1053C000BCB25646B9465E453346524628BF5B4698
:1053D0004046002E52D0E169676AB847002856DD82
:1053E000D9F808301B1A8244361AC9F80830002B45
:1053F000E9D1002003B0BDE8F08F21464046FEF71A
:1054000055FC002840F03681B4F90C303D6898B264
:1054100010F00203D1D110F0010944D14E4600979B
:1054200046B38205D4F808B040F18380B3455A46AC
:1054300000F2B28010F4906F40F0BF8020680192BB
:10544000494600F00DFAA368019AA3EB0B0123680B
:10545000A1601344B24623600026009B9868A0EB2D
:105460000A00D14498600028C3D0B4F90C0080B27F
:10547000002ED6D1D5E900960835D1E7D5E900A6AA
:105480000835A0E721464046FFF750FD80B3B4F948
:105490000C3043F040034FF0FF30A38103B0BDE870
:1054A000F08F002070471E46AA46994618461D46B2
:1054B000009756B388B34A46D4E904132068B24231
:1054C00028BF3246884205D9A16803EB010B5A4533
:1054D00000F3A680934263DCE169676A2A4640468E
:1054E000B847B0F1000BD2DDB9EB0B09CAD00120EF
:1054F000009A9368A3EB0B035D44A6EB0B06936045
:10550000002B3FF476AF002ED4D10AF1080353E903
:1055100002569A460833002EF9D032460A21284610
:1055200000F04EF9002800F09C800130A0EB050946
:10553000C1E720682369984216D86369B34213D83B
:105540006FF00042B24228BF3246E16992FBF3F2AB
:10555000676A02FB03F340464A46B847B0F1000AC7
:1055600095DDA6EB0A0678E7B345DA4628BFB246D2
:105570005246494600F074F9A3682268A3EB0A0377
:105580005244A3602260002BEBD121464046FFF736
:10559000CDFC0028E5D07AE72068B34632464EE7D6
:1055A0002946019200F05CF9019AA3689B1AA36056
:1055B000236813442360934696E723682169A3EB8D
:1055C000010B636903EB430A0AEBDA7A0BF101037F
:1055D0004FEA6A0A33445345524684BF9A465246BC
:1055E00043052CD511464046FCF7C2F800283BD0B5
:1055F0005A4621690190FCF76BFBA289019B22F4BA
:10560000906242F08002A28103EB0B002361AAEBBF
:105610000B03C4F814A0A3602060B34632460EE723
:1056200029465A4600F01CF923685B442360214652
:105630004046FFF77BFC00283FF456AF27E7404683
:1056400000F03CFD03460028DED121694046FFF70B
:1056500099FDB4F90C300C2223F08003C8F8002027
:1056600017E7721C914627E70C22B4F90C30C8F8F2
:1056700000200EE74FF0FF30BCE600BF00FCFF7FCC
:105680002DE9F8430746884600F538764FF00009C3
:10569000D6E90154013D11D4A389012B05F1FF3551
:1056A00008D9B4F90E300133214603D03846C0473B
:1056B00049EA00096B1C04F16804EDD13668002E3C
:1056C000E6D14846BDE8F883004870479C090020B1
:1056D000704700BF704700BF704700BF704700BFF2
:1056E0002DE9F0418B890C46990796B008D504F155
:1056F00043030122C4E90432236016B0BDE8F081FF
:10570000B4F90E100029064627DB6A4602F0C4F8F9
:10571000002821DB019D05F47045A5F50055B5FA7B
:1057200085F54FF480686D094FF4006741463046B7
:10573000FCF71EF8B4F90C30F0B1204AF26343F0E4
:105740008003C4F81480A3812060206135BB3B43F3
:10575000A38116B0BDE8F081A38913F0800519D0AC
:105760004FF0400841463046FCF702F80025B4F9F6
:105770000C302F460028E0D19A05BED423F0030355
:1057800004F1430243F002030121C4E90421A3818F
:105790002260B2E74FF480682F46C7E7B4F90E10D5
:1057A000304602F08FF810B9B4F90C30CFE7A38976
:1057B00023F0030343F001031BB2C8E7894F001035
:1057C00001F0FF01102A2BDB10F0070F08D010F8B2
:1057D000013B013A8B422DD010F0070F42B3F6D1B6
:1057E000F0B441EA012141EA014122F007047FF0CF
:1057F00000070023F0E80256083C85EA010586EA26
:10580000010685FA47F5A3FA87F586FA47F6A5FA61
:1058100087F68EB9EED1F0BC01F0FF0102F007026D
:1058200032B110F8013B013A83EA010313B1F8D118
:105830000020704701387047002D06BF35460338F9
:10584000073815F0010F07D1013015F4807F02BF32
:10585000013015F4C03F0130F0BC0138704700BF83
:1058600088420DD98B1883420AD900EB020CBAB1D9
:10587000624613F801CD02F801CD9942F9D1704783
:105880000F2A0ED8034602F1FF3C4AB10CF1010C7D
:10589000013B8C4411F8012B03F8012F6145F9D12C
:1058A000704740EA01039B0750D1A2F1100370B585
:1058B00001F1200C23F00F0501F1100E00F110048E
:1058C000AC441B095EF8105C44F8105C5EF80C5C9C
:1058D00044F80C5C5EF8085C44F8085C5EF8045C14
:1058E00044F8045C0EF1100EE64504F11004E9D111
:1058F000013312F00C0F01EB031102F00F0400EB67
:10590000031327D0043C24F003064FEA940C1E44F2
:105910001C1F8E465EF8045B44F8045FB442F9D164
:105920000CF1010402F0030203EB840301EB840198
:1059300002F1FF3C4AB10CF1010C013B8C4411F81F
:10594000012B03F8012F6145F9D170BD02F1FF3C35
:1059500003469BE72246EBE7C36C70B505460C4651
:105960004BB153F8240080B1026843F8242000238F
:10597000C0E9033370BD2122042101F03DFE03463E
:10598000E8640028EDD1002070BD012101FA04F681
:10599000721D9200284601F02FFE0028F3D0C0E9C6
:1059A0000146E4E731B1C36C4A6853F8220008604D
:1059B00043F82210704700BFF0B50C69064683B06B
:1059C0000D4601F1140E0020DEF800101FFA81FCD4
:1059D00002FB0C334FEA134C090C02FB01CC0130E3
:1059E0009BB203EB0C4384424EF8043B4FEA1C434A
:1059F000EADC3BB1AA68A24207DD05EB8402013470
:105A000053612C61284603B0F0BD696801930131F0
:105A10003046FFF7A1FF019B0746B8B12A69019301
:105A2000023205F10C0192000C30FCF751F9F26CD6
:105A30006968019B52F82100286042F821503D46D8
:105A400005EB8402013453612C61DBE7024B034810
:105A50003A46B52101F0B0FD0C8A0010A08A001072
:105A6000030C1B04D3B90004102310F07F4F04BFB4
:105A70000002083310F0704F04BF0001043310F02F
:105A8000404F04BF80000233002805DB10F0804F38
:105A900003F1010308BF2023184670470023E4E701
:105AA000036813F00702014607D0DA071FD49807EE
:105AB00021D55B080B600120704798B2A0B1104659
:105AC000DAB20AB908301B0A1A0704BF1B090430EE
:105AD0009A0704BF9B080230DA0703D45B0800F181
